{"contracts/RestaurantReviews.sol":{"RestaurantReviews":{"abi":[{"anonymous":false,"inputs":[{"indexed":false,"internalType":"uint256","name":"id","type":"uint256"},{"indexed":false,"internalType":"string","name":"name","type":"string"},{"indexed":false,"internalType":"string","name":"url_ipfs","type":"string"},{"indexed":false,"internalType":"uint256","name":"rating","type":"uint256"},{"indexed":false,"internalType":"string","name":"tableLand","type":"string"}],"name":"newRestaurant","type":"event"},{"inputs":[{"internalType":"string","name":"_name","type":"string"},{"internalType":"string","name":"_url_ipfs","type":"string"},{"internalType":"uint256","name":"_rating","type":"uint256"},{"internalType":"string","name":"_tableLand","type":"string"}],"name":"addRestaurant","outputs":[],"stateMutability":"nonpayable","type":"function"},{"inputs":[{"internalType":"uint256","name":"_restaurantId","type":"uint256"},{"internalType":"string","name":"_url_ipfs","type":"string"}],"name":"addReview","outputs":[],"stateMutability":"nonpayable","type":"function"},{"inputs":[],"name":"getAllRestaurants","outputs":[{"components":[{"internalType":"uint256","name":"id","type":"uint256"},{"internalType":"string","name":"name","type":"string"},{"internalType":"string","name":"url_ipfs","type":"string"},{"internalType":"uint256[]","name":"reviewIds","type":"uint256[]"},{"internalType":"uint256","name":"rating","type":"uint256"},{"internalType":"string","name":"tableLand","type":"string"}],"internalType":"struct RestaurantReviews.Restaurant[]","name":"","type":"tuple[]"}],"stateMutability":"view","type":"function"},{"inputs":[{"internalType":"uint256","name":"_restaurantId","type":"uint256"}],"name":"getRestaurant","outputs":[{"internalType":"uint256","name":"","type":"uint256"},{"internalType":"string","name":"","type":"string"},{"internalType":"string","name":"","type":"string"},{"internalType":"uint256[]","name":"","type":"uint256[]"},{"internalType":"uint256","name":"","type":"uint256"}],"stateMutability":"view","type":"function"},{"inputs":[{"internalType":"uint256","name":"_restaurantId","type":"uint256"}],"name":"getReviewsByRestaurant","outputs":[{"internalType":"uint256[]","name":"","type":"uint256[]"}],"stateMutability":"view","type":"function"},{"inputs":[],"name":"restaurantCount","outputs":[{"internalType":"uint256","name":"","type":"uint256"}],"stateMutability":"view","type":"function"},{"inputs":[{"internalType":"uint256","name":"","type":"uint256"}],"name":"restaurants","outputs":[{"internalType":"uint256","name":"id","type":"uint256"},{"internalType":"string","name":"name","type":"string"},{"internalType":"string","name":"url_ipfs","type":"string"},{"internalType":"uint256","name":"rating","type":"uint256"},{"internalType":"string","name":"tableLand","type":"string"}],"stateMutability":"view","type":"function"},{"inputs":[],"name":"reviewCount","outputs":[{"internalType":"uint256","name":"","type":"uint256"}],"stateMutability":"view","type":"function"},{"inputs":[{"internalType":"uint256","name":"","type":"uint256"}],"name":"reviews","outputs":[{"internalType":"uint256","name":"id","type":"uint256"},{"internalType":"uint256","name":"restaurantId","type":"uint256"},{"internalType":"string","name":"url_ipfs","type":"string"}],"stateMutability":"view","type":"function"}],"devdoc":{"author":"BuidlGuidl","kind":"dev","methods":{},"version":1},"evm":{"bytecode":{"linkReferences":{},"object":"608060405234801561001057600080fd5b506119a2806100206000396000f3fe608060405234801561001057600080fd5b50600436106100935760003560e01c8063b11b91e611610066578063b11b91e614610136578063c298f1e714610154578063e81935f214610188578063e83ddcea146101a4578063eff5924f146101d657610093565b80635bb0c5d61461009857806363661d37146100b457806387734400146100e4578063ad5461d814610102575b600080fd5b6100b260048036038101906100ad9190610f66565b6101f4565b005b6100ce60048036038101906100c99190610fc2565b6102f2565b6040516100db91906110ad565b60405180910390f35b6100ec6103a4565b6040516100f9919061131d565b60405180910390f35b61011c60048036038101906101179190610fc2565b61068b565b60405161012d959493929190611398565b60405180910390f35b61013e610859565b60405161014b9190611400565b60405180910390f35b61016e60048036038101906101699190610fc2565b61085f565b60405161017f95949392919061141b565b60405180910390f35b6101a2600480360381019061019d9190611483565b610b1d565b005b6101be60048036038101906101b99190610fc2565b610c7e565b6040516101cd9392919061153e565b60405180910390f35b6101de610d30565b6040516101eb9190611400565b60405180910390f35b600254821115610239576040517f08c379a0000000000000000000000000000000000000000000000000000000008152600401610230906115c8565b60405180910390fd5b6003600081548092919061024c90611617565b91905055506040518060600160405280600354815260200183815260200182815250600160006003548152602001908152602001600020600082015181600001556020820151816001015560408201518160020190816102ac919061186b565b5090505060008083815260200190815260200160002060030160035490806001815401808255809150506001900390600052602060002001600090919091909150555050565b6060600254821115610339576040517f08c379a0000000000000000000000000000000000000000000000000000000008152600401610330906115c8565b60405180910390fd5b60008083815260200190815260200160002060030180548060200260200160405190810160405280929190818152602001828054801561039857602002820191906000526020600020905b815481526020019060010190808311610384575b50505050509050919050565b6060600060025467ffffffffffffffff8111156103c4576103c3610e3b565b5b6040519080825280602002602001820160405280156103fd57816020015b6103ea610d36565b8152602001906001900390816103e25790505b50905060005b6002548110156106835760008060008381526020019081526020016000209050806040518060c0016040529081600082015481526020016001820180546104499061168e565b80601f01602080910402602001604051908101604052809291908181526020018280546104759061168e565b80156104c25780601f10610497576101008083540402835291602001916104c2565b820191906000526020600020905b8154815290600101906020018083116104a557829003601f168201915b505050505081526020016002820180546104db9061168e565b80601f01602080910402602001604051908101604052809291908181526020018280546105079061168e565b80156105545780601f1061052957610100808354040283529160200191610554565b820191906000526020600020905b81548152906001019060200180831161053757829003601f168201915b50505050508152602001600382018054806020026020016040519081016040528092919081815260200182805480156105ac57602002820191906000526020600020905b815481526020019060010190808311610598575b50505050508152602001600482015481526020016005820180546105cf9061168e565b80601f01602080910402602001604051908101604052809291908181526020018280546105fb9061168e565b80156106485780601f1061061d57610100808354040283529160200191610648565b820191906000526020600020905b81548152906001019060200180831161062b57829003601f168201915b5050505050815250508383815181106106645761066361193d565b5b602002602001018190525050808061067b90611617565b915050610403565b508091505090565b60006020528060005260406000206000915090508060000154908060010180546106b49061168e565b80601f01602080910402602001604051908101604052809291908181526020018280546106e09061168e565b801561072d5780601f106107025761010080835404028352916020019161072d565b820191906000526020600020905b81548152906001019060200180831161071057829003601f168201915b5050505050908060020180546107429061168e565b80601f016020809104026020016040519081016040528092919081815260200182805461076e9061168e565b80156107bb5780601f10610790576101008083540402835291602001916107bb565b820191906000526020600020905b81548152906001019060200180831161079e57829003601f168201915b5050505050908060040154908060050180546107d69061168e565b80601f01602080910402602001604051908101604052809291908181526020018280546108029061168e565b801561084f5780601f106108245761010080835404028352916020019161084f565b820191906000526020600020905b81548152906001019060200180831161083257829003601f168201915b5050505050905085565b60025481565b6000606080606060006002548611156108ad576040517f08c379a00000000000000000000000000000000000000000000000000000000081526004016108a4906115c8565b60405180910390fd5b60008060008881526020019081526020016000206040518060c0016040529081600082015481526020016001820180546108e69061168e565b80601f01602080910402602001604051908101604052809291908181526020018280546109129061168e565b801561095f5780601f106109345761010080835404028352916020019161095f565b820191906000526020600020905b81548152906001019060200180831161094257829003601f168201915b505050505081526020016002820180546109789061168e565b80601f01602080910402602001604051908101604052809291908181526020018280546109a49061168e565b80156109f15780601f106109c6576101008083540402835291602001916109f1565b820191906000526020600020905b8154815290600101906020018083116109d457829003601f168201915b5050505050815260200160038201805480602002602001604051908101604052809291908181526020018280548015610a4957602002820191906000526020600020905b815481526020019060010190808311610a35575b5050505050815260200160048201548152602001600582018054610a6c9061168e565b80601f0160208091040260200160405190810160405280929190818152602001828054610a989061168e565b8015610ae55780601f10610aba57610100808354040283529160200191610ae5565b820191906000526020600020905b815481529060010190602001808311610ac857829003601f168201915b505050505081525050905080600001518160200151826040015183606001518460800151955095509550955095505091939590929450565b60026000815480929190610b3090611617565b91905055506040518060c001604052806002548152602001858152602001848152602001600067ffffffffffffffff811115610b6f57610b6e610e3b565b5b604051908082528060200260200182016040528015610b9d5781602001602082028036833780820191505090505b508152602001838152602001828152506000806002548152602001908152602001600020600082015181600001556020820151816001019081610be0919061186b565b506040820151816002019081610bf6919061186b565b506060820151816003019080519060200190610c13929190610d6c565b506080820151816004015560a0820151816005019081610c33919061186b565b509050507f784335d3702237e734482a067b5950e6151423a6600fd83b46e3d768fcf3dc4460025485858585604051610c70959493929190611398565b60405180910390a150505050565b6001602052806000526040600020600091509050806000015490806001015490806002018054610cad9061168e565b80601f0160208091040260200160405190810160405280929190818152602001828054610cd99061168e565b8015610d265780601f10610cfb57610100808354040283529160200191610d26565b820191906000526020600020905b815481529060010190602001808311610d0957829003601f168201915b5050505050905083565b60035481565b6040518060c001604052806000815260200160608152602001606081526020016060815260200160008152602001606081525090565b828054828255906000526020600020908101928215610da8579160200282015b82811115610da7578251825591602001919060010190610d8c565b5b509050610db59190610db9565b5090565b5b80821115610dd2576000816000905550600101610dba565b5090565b6000604051905090565b600080fd5b600080fd5b6000819050919050565b610dfd81610dea565b8114610e0857600080fd5b50565b600081359050610e1a81610df4565b92915050565b600080fd5b600080fd5b6000601f19601f8301169050919050565b7f4e487b7100000000000000000000000000000000000000000000000000000000600052604160045260246000fd5b610e7382610e2a565b810181811067ffffffffffffffff82111715610e9257610e91610e3b565b5b80604052505050565b6000610ea5610dd6565b9050610eb18282610e6a565b919050565b600067ffffffffffffffff821115610ed157610ed0610e3b565b5b610eda82610e2a565b9050602081019050919050565b82818337600083830152505050565b6000610f09610f0484610eb6565b610e9b565b905082815260208101848484011115610f2557610f24610e25565b5b610f30848285610ee7565b509392505050565b600082601f830112610f4d57610f4c610e20565b5b8135610f5d848260208601610ef6565b91505092915050565b60008060408385031215610f7d57610f7c610de0565b5b6000610f8b85828601610e0b565b925050602083013567ffffffffffffffff811115610fac57610fab610de5565b5b610fb885828601610f38565b9150509250929050565b600060208284031215610fd857610fd7610de0565b5b6000610fe684828501610e0b565b91505092915050565b600081519050919050565b600082825260208201905092915050565b6000819050602082019050919050565b61102481610dea565b82525050565b6000611036838361101b565b60208301905092915050565b6000602082019050919050565b600061105a82610fef565b6110648185610ffa565b935061106f8361100b565b8060005b838110156110a0578151611087888261102a565b975061109283611042565b925050600181019050611073565b5085935050505092915050565b600060208201905081810360008301526110c7818461104f565b905092915050565b600081519050919050565b600082825260208201905092915050565b6000819050602082019050919050565b600081519050919050565b600082825260208201905092915050565b60005b8381101561113557808201518184015260208101905061111a565b60008484015250505050565b600061114c826110fb565b6111568185611106565b9350611166818560208601611117565b61116f81610e2a565b840191505092915050565b600082825260208201905092915050565b600061119682610fef565b6111a0818561117a565b93506111ab8361100b565b8060005b838110156111dc5781516111c3888261102a565b97506111ce83611042565b9250506001810190506111af565b5085935050505092915050565b600060c083016000830151611201600086018261101b565b50602083015184820360208601526112198282611141565b915050604083015184820360408601526112338282611141565b9150506060830151848203606086015261124d828261118b565b9150506080830151611262608086018261101b565b5060a083015184820360a086015261127a8282611141565b9150508091505092915050565b600061129383836111e9565b905092915050565b6000602082019050919050565b60006112b3826110cf565b6112bd81856110da565b9350836020820285016112cf856110eb565b8060005b8581101561130b57848403895281516112ec8582611287565b94506112f78361129b565b925060208a019950506001810190506112d3565b50829750879550505050505092915050565b6000602082019050818103600083015261133781846112a8565b905092915050565b61134881610dea565b82525050565b600082825260208201905092915050565b600061136a826110fb565b611374818561134e565b9350611384818560208601611117565b61138d81610e2a565b840191505092915050565b600060a0820190506113ad600083018861133f565b81810360208301526113bf818761135f565b905081810360408301526113d3818661135f565b90506113e2606083018561133f565b81810360808301526113f4818461135f565b90509695505050505050565b6000602082019050611415600083018461133f565b92915050565b600060a082019050611430600083018861133f565b8181036020830152611442818761135f565b90508181036040830152611456818661135f565b9050818103606083015261146a818561104f565b9050611479608083018461133f565b9695505050505050565b6000806000806080858703121561149d5761149c610de0565b5b600085013567ffffffffffffffff8111156114bb576114ba610de5565b5b6114c787828801610f38565b945050602085013567ffffffffffffffff8111156114e8576114e7610de5565b5b6114f487828801610f38565b935050604061150587828801610e0b565b925050606085013567ffffffffffffffff81111561152657611525610de5565b5b61153287828801610f38565b91505092959194509250565b6000606082019050611553600083018661133f565b611560602083018561133f565b8181036040830152611572818461135f565b9050949350505050565b7f496e76616c69642072657374617572616e742049440000000000000000000000600082015250565b60006115b260158361134e565b91506115bd8261157c565b602082019050919050565b600060208201905081810360008301526115e1816115a5565b9050919050565b7f4e487b7100000000000000000000000000000000000000000000000000000000600052601160045260246000fd5b600061162282610dea565b91507fffffffffffffffffffffffffffffffffffffffffffffffffffffffffffffffff8203611654576116536115e8565b5b600182019050919050565b7f4e487b7100000000000000000000000000000000000000000000000000000000600052602260045260246000fd5b600060028204905060018216806116a657607f821691505b6020821081036116b9576116b861165f565b5b50919050565b60008190508160005260206000209050919050565b60006020601f8301049050919050565b600082821b905092915050565b6000600883026117217fffffffffffffffffffffffffffffffffffffffffffffffffffffffffffffffff826116e4565b61172b86836116e4565b95508019841693508086168417925050509392505050565b6000819050919050565b600061176861176361175e84610dea565b611743565b610dea565b9050919050565b6000819050919050565b6117828361174d565b61179661178e8261176f565b8484546116f1565b825550505050565b600090565b6117ab61179e565b6117b6818484611779565b505050565b5b818110156117da576117cf6000826117a3565b6001810190506117bc565b5050565b601f82111561181f576117f0816116bf565b6117f9846116d4565b81016020851015611808578190505b61181c611814856116d4565b8301826117bb565b50505b505050565b600082821c905092915050565b600061184260001984600802611824565b1980831691505092915050565b600061185b8383611831565b9150826002028217905092915050565b611874826110fb565b67ffffffffffffffff81111561188d5761188c610e3b565b5b611897825461168e565b6118a28282856117de565b600060209050601f8311600181146118d557600084156118c3578287015190505b6118cd858261184f565b865550611935565b601f1984166118e3866116bf565b60005b8281101561190b578489015182556001820191506020850194506020810190506118e6565b868310156119285784890151611924601f891682611831565b8355505b6001600288020188555050505b505050505050565b7f4e487b7100000000000000000000000000000000000000000000000000000000600052603260045260246000fdfea264697066735822122051d1e9602ee5c47eb84ccc031558591821706d20eca91e14cb4def42cb8785b664736f6c63430008110033","opcodes":"PUSH1 0x80 PUSH1 0x40 MSTORE CALLVALUE DUP1 ISZERO PUSH2 0x10 JUMPI PUSH1 0x0 DUP1 REVERT JUMPDEST POP PUSH2 0x19A2 DUP1 PUSH2 0x20 PUSH1 0x0 CODECOPY PUSH1 0x0 RETURN INVALID PUSH1 0x80 PUSH1 0x40 MSTORE CALLVALUE DUP1 ISZERO PUSH2 0x10 JUMPI PUSH1 0x0 DUP1 REVERT JUMPDEST POP PUSH1 0x4 CALLDATASIZE LT PUSH2 0x93 JUMPI PUSH1 0x0 CALLDATALOAD PUSH1 0xE0 SHR DUP1 PUSH4 0xB11B91E6 GT PUSH2 0x66 JUMPI DUP1 PUSH4 0xB11B91E6 EQ PUSH2 0x136 JUMPI DUP1 PUSH4 0xC298F1E7 EQ PUSH2 0x154 JUMPI DUP1 PUSH4 0xE81935F2 EQ PUSH2 0x188 JUMPI DUP1 PUSH4 0xE83DDCEA EQ PUSH2 0x1A4 JUMPI DUP1 PUSH4 0xEFF5924F EQ PUSH2 0x1D6 JUMPI PUSH2 0x93 JUMP JUMPDEST DUP1 PUSH4 0x5BB0C5D6 EQ PUSH2 0x98 JUMPI DUP1 PUSH4 0x63661D37 EQ PUSH2 0xB4 JUMPI DUP1 PUSH4 0x87734400 EQ PUSH2 0xE4 JUMPI DUP1 PUSH4 0xAD5461D8 EQ PUSH2 0x102 JUMPI JUMPDEST PUSH1 0x0 DUP1 REVERT JUMPDEST PUSH2 0xB2 PUSH1 0x4 DUP1 CALLDATASIZE SUB DUP2 ADD SWAP1 PUSH2 0xAD SWAP2 SWAP1 PUSH2 0xF66 JUMP JUMPDEST PUSH2 0x1F4 JUMP JUMPDEST STOP JUMPDEST PUSH2 0xCE PUSH1 0x4 DUP1 CALLDATASIZE SUB DUP2 ADD SWAP1 PUSH2 0xC9 SWAP2 SWAP1 PUSH2 0xFC2 JUMP JUMPDEST PUSH2 0x2F2 JUMP JUMPDEST PUSH1 0x40 MLOAD PUSH2 0xDB SWAP2 SWAP1 PUSH2 0x10AD JUMP JUMPDEST PUSH1 0x40 MLOAD DUP1 SWAP2 SUB SWAP1 RETURN JUMPDEST PUSH2 0xEC PUSH2 0x3A4 JUMP JUMPDEST PUSH1 0x40 MLOAD PUSH2 0xF9 SWAP2 SWAP1 PUSH2 0x131D JUMP JUMPDEST PUSH1 0x40 MLOAD DUP1 SWAP2 SUB SWAP1 RETURN JUMPDEST PUSH2 0x11C PUSH1 0x4 DUP1 CALLDATASIZE SUB DUP2 ADD SWAP1 PUSH2 0x117 SWAP2 SWAP1 PUSH2 0xFC2 JUMP JUMPDEST PUSH2 0x68B JUMP JUMPDEST PUSH1 0x40 MLOAD PUSH2 0x12D SWAP6 SWAP5 SWAP4 SWAP3 SWAP2 SWAP1 PUSH2 0x1398 JUMP JUMPDEST PUSH1 0x40 MLOAD DUP1 SWAP2 SUB SWAP1 RETURN JUMPDEST PUSH2 0x13E PUSH2 0x859 JUMP JUMPDEST PUSH1 0x40 MLOAD PUSH2 0x14B SWAP2 SWAP1 PUSH2 0x1400 JUMP JUMPDEST PUSH1 0x40 MLOAD DUP1 SWAP2 SUB SWAP1 RETURN JUMPDEST PUSH2 0x16E PUSH1 0x4 DUP1 CALLDATASIZE SUB DUP2 ADD SWAP1 PUSH2 0x169 SWAP2 SWAP1 PUSH2 0xFC2 JUMP JUMPDEST PUSH2 0x85F JUMP JUMPDEST PUSH1 0x40 MLOAD PUSH2 0x17F SWAP6 SWAP5 SWAP4 SWAP3 SWAP2 SWAP1 PUSH2 0x141B JUMP JUMPDEST PUSH1 0x40 MLOAD DUP1 SWAP2 SUB SWAP1 RETURN JUMPDEST PUSH2 0x1A2 PUSH1 0x4 DUP1 CALLDATASIZE SUB DUP2 ADD SWAP1 PUSH2 0x19D SWAP2 SWAP1 PUSH2 0x1483 JUMP JUMPDEST PUSH2 0xB1D JUMP JUMPDEST STOP JUMPDEST PUSH2 0x1BE PUSH1 0x4 DUP1 CALLDATASIZE SUB DUP2 ADD SWAP1 PUSH2 0x1B9 SWAP2 SWAP1 PUSH2 0xFC2 JUMP JUMPDEST PUSH2 0xC7E JUMP JUMPDEST PUSH1 0x40 MLOAD PUSH2 0x1CD SWAP4 SWAP3 SWAP2 SWAP1 PUSH2 0x153E JUMP JUMPDEST PUSH1 0x40 MLOAD DUP1 SWAP2 SUB SWAP1 RETURN JUMPDEST PUSH2 0x1DE PUSH2 0xD30 JUMP JUMPDEST PUSH1 0x40 MLOAD PUSH2 0x1EB SWAP2 SWAP1 PUSH2 0x1400 JUMP JUMPDEST PUSH1 0x40 MLOAD DUP1 SWAP2 SUB SWAP1 RETURN JUMPDEST PUSH1 0x2 SLOAD DUP3 GT ISZERO PUSH2 0x239 JUMPI PUSH1 0x40 MLOAD PUSH32 0x8C379A000000000000000000000000000000000000000000000000000000000 DUP2 MSTORE PUSH1 0x4 ADD PUSH2 0x230 SWAP1 PUSH2 0x15C8 JUMP JUMPDEST PUSH1 0x40 MLOAD DUP1 SWAP2 SUB SWAP1 REVERT JUMPDEST PUSH1 0x3 PUSH1 0x0 DUP2 SLOAD DUP1 SWAP3 SWAP2 SWAP1 PUSH2 0x24C SWAP1 PUSH2 0x1617 JUMP JUMPDEST SWAP2 SWAP1 POP SSTORE POP PUSH1 0x40 MLOAD DUP1 PUSH1 0x60 ADD PUSH1 0x40 MSTORE DUP1 PUSH1 0x3 SLOAD DUP2 MSTORE PUSH1 0x20 ADD DUP4 DUP2 MSTORE PUSH1 0x20 ADD DUP3 DUP2 MSTORE POP PUSH1 0x1 PUSH1 0x0 PUSH1 0x3 SLOAD DUP2 MSTORE PUSH1 0x20 ADD SWAP1 DUP2 MSTORE PUSH1 0x20 ADD PUSH1 0x0 KECCAK256 PUSH1 0x0 DUP3 ADD MLOAD DUP2 PUSH1 0x0 ADD SSTORE PUSH1 0x20 DUP3 ADD MLOAD DUP2 PUSH1 0x1 ADD SSTORE PUSH1 0x40 DUP3 ADD MLOAD DUP2 PUSH1 0x2 ADD SWAP1 DUP2 PUSH2 0x2AC SWAP2 SWAP1 PUSH2 0x186B JUMP JUMPDEST POP SWAP1 POP POP PUSH1 0x0 DUP1 DUP4 DUP2 MSTORE PUSH1 0x20 ADD SWAP1 DUP2 MSTORE PUSH1 0x20 ADD PUSH1 0x0 KECCAK256 PUSH1 0x3 ADD PUSH1 0x3 SLOAD SWAP1 DUP1 PUSH1 0x1 DUP2 SLOAD ADD DUP1 DUP3 SSTORE DUP1 SWAP2 POP POP PUSH1 0x1 SWAP1 SUB SWAP1 PUSH1 0x0 MSTORE PUSH1 0x20 PUSH1 0x0 KECCAK256 ADD PUSH1 0x0 SWAP1 SWAP2 SWAP1 SWAP2 SWAP1 SWAP2 POP SSTORE POP POP JUMP JUMPDEST PUSH1 0x60 PUSH1 0x2 SLOAD DUP3 GT ISZERO PUSH2 0x339 JUMPI PUSH1 0x40 MLOAD PUSH32 0x8C379A000000000000000000000000000000000000000000000000000000000 DUP2 MSTORE PUSH1 0x4 ADD PUSH2 0x330 SWAP1 PUSH2 0x15C8 JUMP JUMPDEST PUSH1 0x40 MLOAD DUP1 SWAP2 SUB SWAP1 REVERT JUMPDEST PUSH1 0x0 DUP1 DUP4 DUP2 MSTORE PUSH1 0x20 ADD SWAP1 DUP2 MSTORE PUSH1 0x20 ADD PUSH1 0x0 KECCAK256 PUSH1 0x3 ADD DUP1 SLOAD DUP1 PUSH1 0x20 MUL PUSH1 0x20 ADD PUSH1 0x40 MLOAD SWAP1 DUP2 ADD PUSH1 0x40 MSTORE DUP1 SWAP3 SWAP2 SWAP1 DUP2 DUP2 MSTORE PUSH1 0x20 ADD DUP3 DUP1 SLOAD DUP1 ISZERO PUSH2 0x398 JUMPI PUSH1 0x20 MUL DUP3 ADD SWAP2 SWAP1 PUSH1 0x0 MSTORE PUSH1 0x20 PUSH1 0x0 KECCAK256 SWAP1 JUMPDEST DUP2 SLOAD DUP2 MSTORE PUSH1 0x20 ADD SWAP1 PUSH1 0x1 ADD SWAP1 DUP1 DUP4 GT PUSH2 0x384 JUMPI JUMPDEST POP POP POP POP POP SWAP1 POP SWAP2 SWAP1 POP JUMP JUMPDEST PUSH1 0x60 PUSH1 0x0 PUSH1 0x2 SLOAD PUSH8 0xFFFFFFFFFFFFFFFF DUP2 GT ISZERO PUSH2 0x3C4 JUMPI PUSH2 0x3C3 PUSH2 0xE3B JUMP JUMPDEST JUMPDEST PUSH1 0x40 MLOAD SWAP1 DUP1 DUP3 MSTORE DUP1 PUSH1 0x20 MUL PUSH1 0x20 ADD DUP3 ADD PUSH1 0x40 MSTORE DUP1 ISZERO PUSH2 0x3FD JUMPI DUP2 PUSH1 0x20 ADD JUMPDEST PUSH2 0x3EA PUSH2 0xD36 JUMP JUMPDEST DUP2 MSTORE PUSH1 0x20 ADD SWAP1 PUSH1 0x1 SWAP1 SUB SWAP1 DUP2 PUSH2 0x3E2 JUMPI SWAP1 POP JUMPDEST POP SWAP1 POP PUSH1 0x0 JUMPDEST PUSH1 0x2 SLOAD DUP2 LT ISZERO PUSH2 0x683 JUMPI PUSH1 0x0 DUP1 PUSH1 0x0 DUP4 DUP2 MSTORE PUSH1 0x20 ADD SWAP1 DUP2 MSTORE PUSH1 0x20 ADD PUSH1 0x0 KECCAK256 SWAP1 POP DUP1 PUSH1 0x40 MLOAD DUP1 PUSH1 0xC0 ADD PUSH1 0x40 MSTORE SWAP1 DUP2 PUSH1 0x0 DUP3 ADD SLOAD DUP2 MSTORE PUSH1 0x20 ADD PUSH1 0x1 DUP3 ADD DUP1 SLOAD PUSH2 0x449 SWAP1 PUSH2 0x168E JUMP JUMPDEST DUP1 PUSH1 0x1F ADD PUSH1 0x20 DUP1 SWAP2 DIV MUL PUSH1 0x20 ADD PUSH1 0x40 MLOAD SWAP1 DUP2 ADD PUSH1 0x40 MSTORE DUP1 SWAP3 SWAP2 SWAP1 DUP2 DUP2 MSTORE PUSH1 0x20 ADD DUP3 DUP1 SLOAD PUSH2 0x475 SWAP1 PUSH2 0x168E JUMP JUMPDEST DUP1 ISZERO PUSH2 0x4C2 JUMPI DUP1 PUSH1 0x1F LT PUSH2 0x497 JUMPI PUSH2 0x100 DUP1 DUP4 SLOAD DIV MUL DUP4 MSTORE SWAP2 PUSH1 0x20 ADD SWAP2 PUSH2 0x4C2 JUMP JUMPDEST DUP3 ADD SWAP2 SWAP1 PUSH1 0x0 MSTORE PUSH1 0x20 PUSH1 0x0 KECCAK256 SWAP1 JUMPDEST DUP2 SLOAD DUP2 MSTORE SWAP1 PUSH1 0x1 ADD SWAP1 PUSH1 0x20 ADD DUP1 DUP4 GT PUSH2 0x4A5 JUMPI DUP3 SWAP1 SUB PUSH1 0x1F AND DUP3 ADD SWAP2 JUMPDEST POP POP POP POP POP DUP2 MSTORE PUSH1 0x20 ADD PUSH1 0x2 DUP3 ADD DUP1 SLOAD PUSH2 0x4DB SWAP1 PUSH2 0x168E JUMP JUMPDEST DUP1 PUSH1 0x1F ADD PUSH1 0x20 DUP1 SWAP2 DIV MUL PUSH1 0x20 ADD PUSH1 0x40 MLOAD SWAP1 DUP2 ADD PUSH1 0x40 MSTORE DUP1 SWAP3 SWAP2 SWAP1 DUP2 DUP2 MSTORE PUSH1 0x20 ADD DUP3 DUP1 SLOAD PUSH2 0x507 SWAP1 PUSH2 0x168E JUMP JUMPDEST DUP1 ISZERO PUSH2 0x554 JUMPI DUP1 PUSH1 0x1F LT PUSH2 0x529 JUMPI PUSH2 0x100 DUP1 DUP4 SLOAD DIV MUL DUP4 MSTORE SWAP2 PUSH1 0x20 ADD SWAP2 PUSH2 0x554 JUMP JUMPDEST DUP3 ADD SWAP2 SWAP1 PUSH1 0x0 MSTORE PUSH1 0x20 PUSH1 0x0 KECCAK256 SWAP1 JUMPDEST DUP2 SLOAD DUP2 MSTORE SWAP1 PUSH1 0x1 ADD SWAP1 PUSH1 0x20 ADD DUP1 DUP4 GT PUSH2 0x537 JUMPI DUP3 SWAP1 SUB PUSH1 0x1F AND DUP3 ADD SWAP2 JUMPDEST POP POP POP POP POP DUP2 MSTORE PUSH1 0x20 ADD PUSH1 0x3 DUP3 ADD DUP1 SLOAD DUP1 PUSH1 0x20 MUL PUSH1 0x20 ADD PUSH1 0x40 MLOAD SWAP1 DUP2 ADD PUSH1 0x40 MSTORE DUP1 SWAP3 SWAP2 SWAP1 DUP2 DUP2 MSTORE PUSH1 0x20 ADD DUP3 DUP1 SLOAD DUP1 ISZERO PUSH2 0x5AC JUMPI PUSH1 0x20 MUL DUP3 ADD SWAP2 SWAP1 PUSH1 0x0 MSTORE PUSH1 0x20 PUSH1 0x0 KECCAK256 SWAP1 JUMPDEST DUP2 SLOAD DUP2 MSTORE PUSH1 0x20 ADD SWAP1 PUSH1 0x1 ADD SWAP1 DUP1 DUP4 GT PUSH2 0x598 JUMPI JUMPDEST POP POP POP POP POP DUP2 MSTORE PUSH1 0x20 ADD PUSH1 0x4 DUP3 ADD SLOAD DUP2 MSTORE PUSH1 0x20 ADD PUSH1 0x5 DUP3 ADD DUP1 SLOAD PUSH2 0x5CF SWAP1 PUSH2 0x168E JUMP JUMPDEST DUP1 PUSH1 0x1F ADD PUSH1 0x20 DUP1 SWAP2 DIV MUL PUSH1 0x20 ADD PUSH1 0x40 MLOAD SWAP1 DUP2 ADD PUSH1 0x40 MSTORE DUP1 SWAP3 SWAP2 SWAP1 DUP2 DUP2 MSTORE PUSH1 0x20 ADD DUP3 DUP1 SLOAD PUSH2 0x5FB SWAP1 PUSH2 0x168E JUMP JUMPDEST DUP1 ISZERO PUSH2 0x648 JUMPI DUP1 PUSH1 0x1F LT PUSH2 0x61D JUMPI PUSH2 0x100 DUP1 DUP4 SLOAD DIV MUL DUP4 MSTORE SWAP2 PUSH1 0x20 ADD SWAP2 PUSH2 0x648 JUMP JUMPDEST DUP3 ADD SWAP2 SWAP1 PUSH1 0x0 MSTORE PUSH1 0x20 PUSH1 0x0 KECCAK256 SWAP1 JUMPDEST DUP2 SLOAD DUP2 MSTORE SWAP1 PUSH1 0x1 ADD SWAP1 PUSH1 0x20 ADD DUP1 DUP4 GT PUSH2 0x62B JUMPI DUP3 SWAP1 SUB PUSH1 0x1F AND DUP3 ADD SWAP2 JUMPDEST POP POP POP POP POP DUP2 MSTORE POP POP DUP4 DUP4 DUP2 MLOAD DUP2 LT PUSH2 0x664 JUMPI PUSH2 0x663 PUSH2 0x193D JUMP JUMPDEST JUMPDEST PUSH1 0x20 MUL PUSH1 0x20 ADD ADD DUP2 SWAP1 MSTORE POP POP DUP1 DUP1 PUSH2 0x67B SWAP1 PUSH2 0x1617 JUMP JUMPDEST SWAP2 POP POP PUSH2 0x403 JUMP JUMPDEST POP DUP1 SWAP2 POP POP SWAP1 JUMP JUMPDEST PUSH1 0x0 PUSH1 0x20 MSTORE DUP1 PUSH1 0x0 MSTORE PUSH1 0x40 PUSH1 0x0 KECCAK256 PUSH1 0x0 SWAP2 POP SWAP1 POP DUP1 PUSH1 0x0 ADD SLOAD SWAP1 DUP1 PUSH1 0x1 ADD DUP1 SLOAD PUSH2 0x6B4 SWAP1 PUSH2 0x168E JUMP JUMPDEST DUP1 PUSH1 0x1F ADD PUSH1 0x20 DUP1 SWAP2 DIV MUL PUSH1 0x20 ADD PUSH1 0x40 MLOAD SWAP1 DUP2 ADD PUSH1 0x40 MSTORE DUP1 SWAP3 SWAP2 SWAP1 DUP2 DUP2 MSTORE PUSH1 0x20 ADD DUP3 DUP1 SLOAD PUSH2 0x6E0 SWAP1 PUSH2 0x168E JUMP JUMPDEST DUP1 ISZERO PUSH2 0x72D JUMPI DUP1 PUSH1 0x1F LT PUSH2 0x702 JUMPI PUSH2 0x100 DUP1 DUP4 SLOAD DIV MUL DUP4 MSTORE SWAP2 PUSH1 0x20 ADD SWAP2 PUSH2 0x72D JUMP JUMPDEST DUP3 ADD SWAP2 SWAP1 PUSH1 0x0 MSTORE PUSH1 0x20 PUSH1 0x0 KECCAK256 SWAP1 JUMPDEST DUP2 SLOAD DUP2 MSTORE SWAP1 PUSH1 0x1 ADD SWAP1 PUSH1 0x20 ADD DUP1 DUP4 GT PUSH2 0x710 JUMPI DUP3 SWAP1 SUB PUSH1 0x1F AND DUP3 ADD SWAP2 JUMPDEST POP POP POP POP POP SWAP1 DUP1 PUSH1 0x2 ADD DUP1 SLOAD PUSH2 0x742 SWAP1 PUSH2 0x168E JUMP JUMPDEST DUP1 PUSH1 0x1F ADD PUSH1 0x20 DUP1 SWAP2 DIV MUL PUSH1 0x20 ADD PUSH1 0x40 MLOAD SWAP1 DUP2 ADD PUSH1 0x40 MSTORE DUP1 SWAP3 SWAP2 SWAP1 DUP2 DUP2 MSTORE PUSH1 0x20 ADD DUP3 DUP1 SLOAD PUSH2 0x76E SWAP1 PUSH2 0x168E JUMP JUMPDEST DUP1 ISZERO PUSH2 0x7BB JUMPI DUP1 PUSH1 0x1F LT PUSH2 0x790 JUMPI PUSH2 0x100 DUP1 DUP4 SLOAD DIV MUL DUP4 MSTORE SWAP2 PUSH1 0x20 ADD SWAP2 PUSH2 0x7BB JUMP JUMPDEST DUP3 ADD SWAP2 SWAP1 PUSH1 0x0 MSTORE PUSH1 0x20 PUSH1 0x0 KECCAK256 SWAP1 JUMPDEST DUP2 SLOAD DUP2 MSTORE SWAP1 PUSH1 0x1 ADD SWAP1 PUSH1 0x20 ADD DUP1 DUP4 GT PUSH2 0x79E JUMPI DUP3 SWAP1 SUB PUSH1 0x1F AND DUP3 ADD SWAP2 JUMPDEST POP POP POP POP POP SWAP1 DUP1 PUSH1 0x4 ADD SLOAD SWAP1 DUP1 PUSH1 0x5 ADD DUP1 SLOAD PUSH2 0x7D6 SWAP1 PUSH2 0x168E JUMP JUMPDEST DUP1 PUSH1 0x1F ADD PUSH1 0x20 DUP1 SWAP2 DIV MUL PUSH1 0x20 ADD PUSH1 0x40 MLOAD SWAP1 DUP2 ADD PUSH1 0x40 MSTORE DUP1 SWAP3 SWAP2 SWAP1 DUP2 DUP2 MSTORE PUSH1 0x20 ADD DUP3 DUP1 SLOAD PUSH2 0x802 SWAP1 PUSH2 0x168E JUMP JUMPDEST DUP1 ISZERO PUSH2 0x84F JUMPI DUP1 PUSH1 0x1F LT PUSH2 0x824 JUMPI PUSH2 0x100 DUP1 DUP4 SLOAD DIV MUL DUP4 MSTORE SWAP2 PUSH1 0x20 ADD SWAP2 PUSH2 0x84F JUMP JUMPDEST DUP3 ADD SWAP2 SWAP1 PUSH1 0x0 MSTORE PUSH1 0x20 PUSH1 0x0 KECCAK256 SWAP1 JUMPDEST DUP2 SLOAD DUP2 MSTORE SWAP1 PUSH1 0x1 ADD SWAP1 PUSH1 0x20 ADD DUP1 DUP4 GT PUSH2 0x832 JUMPI DUP3 SWAP1 SUB PUSH1 0x1F AND DUP3 ADD SWAP2 JUMPDEST POP POP POP POP POP SWAP1 POP DUP6 JUMP JUMPDEST PUSH1 0x2 SLOAD DUP2 JUMP JUMPDEST PUSH1 0x0 PUSH1 0x60 DUP1 PUSH1 0x60 PUSH1 0x0 PUSH1 0x2 SLOAD DUP7 GT ISZERO PUSH2 0x8AD JUMPI PUSH1 0x40 MLOAD PUSH32 0x8C379A000000000000000000000000000000000000000000000000000000000 DUP2 MSTORE PUSH1 0x4 ADD PUSH2 0x8A4 SWAP1 PUSH2 0x15C8 JUMP JUMPDEST PUSH1 0x40 MLOAD DUP1 SWAP2 SUB SWAP1 REVERT JUMPDEST PUSH1 0x0 DUP1 PUSH1 0x0 DUP9 DUP2 MSTORE PUSH1 0x20 ADD SWAP1 DUP2 MSTORE PUSH1 0x20 ADD PUSH1 0x0 KECCAK256 PUSH1 0x40 MLOAD DUP1 PUSH1 0xC0 ADD PUSH1 0x40 MSTORE SWAP1 DUP2 PUSH1 0x0 DUP3 ADD SLOAD DUP2 MSTORE PUSH1 0x20 ADD PUSH1 0x1 DUP3 ADD DUP1 SLOAD PUSH2 0x8E6 SWAP1 PUSH2 0x168E JUMP JUMPDEST DUP1 PUSH1 0x1F ADD PUSH1 0x20 DUP1 SWAP2 DIV MUL PUSH1 0x20 ADD PUSH1 0x40 MLOAD SWAP1 DUP2 ADD PUSH1 0x40 MSTORE DUP1 SWAP3 SWAP2 SWAP1 DUP2 DUP2 MSTORE PUSH1 0x20 ADD DUP3 DUP1 SLOAD PUSH2 0x912 SWAP1 PUSH2 0x168E JUMP JUMPDEST DUP1 ISZERO PUSH2 0x95F JUMPI DUP1 PUSH1 0x1F LT PUSH2 0x934 JUMPI PUSH2 0x100 DUP1 DUP4 SLOAD DIV MUL DUP4 MSTORE SWAP2 PUSH1 0x20 ADD SWAP2 PUSH2 0x95F JUMP JUMPDEST DUP3 ADD SWAP2 SWAP1 PUSH1 0x0 MSTORE PUSH1 0x20 PUSH1 0x0 KECCAK256 SWAP1 JUMPDEST DUP2 SLOAD DUP2 MSTORE SWAP1 PUSH1 0x1 ADD SWAP1 PUSH1 0x20 ADD DUP1 DUP4 GT PUSH2 0x942 JUMPI DUP3 SWAP1 SUB PUSH1 0x1F AND DUP3 ADD SWAP2 JUMPDEST POP POP POP POP POP DUP2 MSTORE PUSH1 0x20 ADD PUSH1 0x2 DUP3 ADD DUP1 SLOAD PUSH2 0x978 SWAP1 PUSH2 0x168E JUMP JUMPDEST DUP1 PUSH1 0x1F ADD PUSH1 0x20 DUP1 SWAP2 DIV MUL PUSH1 0x20 ADD PUSH1 0x40 MLOAD SWAP1 DUP2 ADD PUSH1 0x40 MSTORE DUP1 SWAP3 SWAP2 SWAP1 DUP2 DUP2 MSTORE PUSH1 0x20 ADD DUP3 DUP1 SLOAD PUSH2 0x9A4 SWAP1 PUSH2 0x168E JUMP JUMPDEST DUP1 ISZERO PUSH2 0x9F1 JUMPI DUP1 PUSH1 0x1F LT PUSH2 0x9C6 JUMPI PUSH2 0x100 DUP1 DUP4 SLOAD DIV MUL DUP4 MSTORE SWAP2 PUSH1 0x20 ADD SWAP2 PUSH2 0x9F1 JUMP JUMPDEST DUP3 ADD SWAP2 SWAP1 PUSH1 0x0 MSTORE PUSH1 0x20 PUSH1 0x0 KECCAK256 SWAP1 JUMPDEST DUP2 SLOAD DUP2 MSTORE SWAP1 PUSH1 0x1 ADD SWAP1 PUSH1 0x20 ADD DUP1 DUP4 GT PUSH2 0x9D4 JUMPI DUP3 SWAP1 SUB PUSH1 0x1F AND DUP3 ADD SWAP2 JUMPDEST POP POP POP POP POP DUP2 MSTORE PUSH1 0x20 ADD PUSH1 0x3 DUP3 ADD DUP1 SLOAD DUP1 PUSH1 0x20 MUL PUSH1 0x20 ADD PUSH1 0x40 MLOAD SWAP1 DUP2 ADD PUSH1 0x40 MSTORE DUP1 SWAP3 SWAP2 SWAP1 DUP2 DUP2 MSTORE PUSH1 0x20 ADD DUP3 DUP1 SLOAD DUP1 ISZERO PUSH2 0xA49 JUMPI PUSH1 0x20 MUL DUP3 ADD SWAP2 SWAP1 PUSH1 0x0 MSTORE PUSH1 0x20 PUSH1 0x0 KECCAK256 SWAP1 JUMPDEST DUP2 SLOAD DUP2 MSTORE PUSH1 0x20 ADD SWAP1 PUSH1 0x1 ADD SWAP1 DUP1 DUP4 GT PUSH2 0xA35 JUMPI JUMPDEST POP POP POP POP POP DUP2 MSTORE PUSH1 0x20 ADD PUSH1 0x4 DUP3 ADD SLOAD DUP2 MSTORE PUSH1 0x20 ADD PUSH1 0x5 DUP3 ADD DUP1 SLOAD PUSH2 0xA6C SWAP1 PUSH2 0x168E JUMP JUMPDEST DUP1 PUSH1 0x1F ADD PUSH1 0x20 DUP1 SWAP2 DIV MUL PUSH1 0x20 ADD PUSH1 0x40 MLOAD SWAP1 DUP2 ADD PUSH1 0x40 MSTORE DUP1 SWAP3 SWAP2 SWAP1 DUP2 DUP2 MSTORE PUSH1 0x20 ADD DUP3 DUP1 SLOAD PUSH2 0xA98 SWAP1 PUSH2 0x168E JUMP JUMPDEST DUP1 ISZERO PUSH2 0xAE5 JUMPI DUP1 PUSH1 0x1F LT PUSH2 0xABA JUMPI PUSH2 0x100 DUP1 DUP4 SLOAD DIV MUL DUP4 MSTORE SWAP2 PUSH1 0x20 ADD SWAP2 PUSH2 0xAE5 JUMP JUMPDEST DUP3 ADD SWAP2 SWAP1 PUSH1 0x0 MSTORE PUSH1 0x20 PUSH1 0x0 KECCAK256 SWAP1 JUMPDEST DUP2 SLOAD DUP2 MSTORE SWAP1 PUSH1 0x1 ADD SWAP1 PUSH1 0x20 ADD DUP1 DUP4 GT PUSH2 0xAC8 JUMPI DUP3 SWAP1 SUB PUSH1 0x1F AND DUP3 ADD SWAP2 JUMPDEST POP POP POP POP POP DUP2 MSTORE POP POP SWAP1 POP DUP1 PUSH1 0x0 ADD MLOAD DUP2 PUSH1 0x20 ADD MLOAD DUP3 PUSH1 0x40 ADD MLOAD DUP4 PUSH1 0x60 ADD MLOAD DUP5 PUSH1 0x80 ADD MLOAD SWAP6 POP SWAP6 POP SWAP6 POP SWAP6 POP SWAP6 POP POP SWAP2 SWAP4 SWAP6 SWAP1 SWAP3 SWAP5 POP JUMP JUMPDEST PUSH1 0x2 PUSH1 0x0 DUP2 SLOAD DUP1 SWAP3 SWAP2 SWAP1 PUSH2 0xB30 SWAP1 PUSH2 0x1617 JUMP JUMPDEST SWAP2 SWAP1 POP SSTORE POP PUSH1 0x40 MLOAD DUP1 PUSH1 0xC0 ADD PUSH1 0x40 MSTORE DUP1 PUSH1 0x2 SLOAD DUP2 MSTORE PUSH1 0x20 ADD DUP6 DUP2 MSTORE PUSH1 0x20 ADD DUP5 DUP2 MSTORE PUSH1 0x20 ADD PUSH1 0x0 PUSH8 0xFFFFFFFFFFFFFFFF DUP2 GT ISZERO PUSH2 0xB6F JUMPI PUSH2 0xB6E PUSH2 0xE3B JUMP JUMPDEST JUMPDEST PUSH1 0x40 MLOAD SWAP1 DUP1 DUP3 MSTORE DUP1 PUSH1 0x20 MUL PUSH1 0x20 ADD DUP3 ADD PUSH1 0x40 MSTORE DUP1 ISZERO PUSH2 0xB9D JUMPI DUP2 PUSH1 0x20 ADD PUSH1 0x20 DUP3 MUL DUP1 CALLDATASIZE DUP4 CALLDATACOPY DUP1 DUP3 ADD SWAP2 POP POP SWAP1 POP JUMPDEST POP DUP2 MSTORE PUSH1 0x20 ADD DUP4 DUP2 MSTORE PUSH1 0x20 ADD DUP3 DUP2 MSTORE POP PUSH1 0x0 DUP1 PUSH1 0x2 SLOAD DUP2 MSTORE PUSH1 0x20 ADD SWAP1 DUP2 MSTORE PUSH1 0x20 ADD PUSH1 0x0 KECCAK256 PUSH1 0x0 DUP3 ADD MLOAD DUP2 PUSH1 0x0 ADD SSTORE PUSH1 0x20 DUP3 ADD MLOAD DUP2 PUSH1 0x1 ADD SWAP1 DUP2 PUSH2 0xBE0 SWAP2 SWAP1 PUSH2 0x186B JUMP JUMPDEST POP PUSH1 0x40 DUP3 ADD MLOAD DUP2 PUSH1 0x2 ADD SWAP1 DUP2 PUSH2 0xBF6 SWAP2 SWAP1 PUSH2 0x186B JUMP JUMPDEST POP PUSH1 0x60 DUP3 ADD MLOAD DUP2 PUSH1 0x3 ADD SWAP1 DUP1 MLOAD SWAP1 PUSH1 0x20 ADD SWAP1 PUSH2 0xC13 SWAP3 SWAP2 SWAP1 PUSH2 0xD6C JUMP JUMPDEST POP PUSH1 0x80 DUP3 ADD MLOAD DUP2 PUSH1 0x4 ADD SSTORE PUSH1 0xA0 DUP3 ADD MLOAD DUP2 PUSH1 0x5 ADD SWAP1 DUP2 PUSH2 0xC33 SWAP2 SWAP1 PUSH2 0x186B JUMP JUMPDEST POP SWAP1 POP POP PUSH32 0x784335D3702237E734482A067B5950E6151423A6600FD83B46E3D768FCF3DC44 PUSH1 0x2 SLOAD DUP6 DUP6 DUP6 DUP6 PUSH1 0x40 MLOAD PUSH2 0xC70 SWAP6 SWAP5 SWAP4 SWAP3 SWAP2 SWAP1 PUSH2 0x1398 JUMP JUMPDEST PUSH1 0x40 MLOAD DUP1 SWAP2 SUB SWAP1 LOG1 POP POP POP POP JUMP JUMPDEST PUSH1 0x1 PUSH1 0x20 MSTORE DUP1 PUSH1 0x0 MSTORE PUSH1 0x40 PUSH1 0x0 KECCAK256 PUSH1 0x0 SWAP2 POP SWAP1 POP DUP1 PUSH1 0x0 ADD SLOAD SWAP1 DUP1 PUSH1 0x1 ADD SLOAD SWAP1 DUP1 PUSH1 0x2 ADD DUP1 SLOAD PUSH2 0xCAD SWAP1 PUSH2 0x168E JUMP JUMPDEST DUP1 PUSH1 0x1F ADD PUSH1 0x20 DUP1 SWAP2 DIV MUL PUSH1 0x20 ADD PUSH1 0x40 MLOAD SWAP1 DUP2 ADD PUSH1 0x40 MSTORE DUP1 SWAP3 SWAP2 SWAP1 DUP2 DUP2 MSTORE PUSH1 0x20 ADD DUP3 DUP1 SLOAD PUSH2 0xCD9 SWAP1 PUSH2 0x168E JUMP JUMPDEST DUP1 ISZERO PUSH2 0xD26 JUMPI DUP1 PUSH1 0x1F LT PUSH2 0xCFB JUMPI PUSH2 0x100 DUP1 DUP4 SLOAD DIV MUL DUP4 MSTORE SWAP2 PUSH1 0x20 ADD SWAP2 PUSH2 0xD26 JUMP JUMPDEST DUP3 ADD SWAP2 SWAP1 PUSH1 0x0 MSTORE PUSH1 0x20 PUSH1 0x0 KECCAK256 SWAP1 JUMPDEST DUP2 SLOAD DUP2 MSTORE SWAP1 PUSH1 0x1 ADD SWAP1 PUSH1 0x20 ADD DUP1 DUP4 GT PUSH2 0xD09 JUMPI DUP3 SWAP1 SUB PUSH1 0x1F AND DUP3 ADD SWAP2 JUMPDEST POP POP POP POP POP SWAP1 POP DUP4 JUMP JUMPDEST PUSH1 0x3 SLOAD DUP2 JUMP JUMPDEST PUSH1 0x40 MLOAD DUP1 PUSH1 0xC0 ADD PUSH1 0x40 MSTORE DUP1 PUSH1 0x0 DUP2 MSTORE PUSH1 0x20 ADD PUSH1 0x60 DUP2 MSTORE PUSH1 0x20 ADD PUSH1 0x60 DUP2 MSTORE PUSH1 0x20 ADD PUSH1 0x60 DUP2 MSTORE PUSH1 0x20 ADD PUSH1 0x0 DUP2 MSTORE PUSH1 0x20 ADD PUSH1 0x60 DUP2 MSTORE POP SWAP1 JUMP JUMPDEST DUP3 DUP1 SLOAD DUP3 DUP3 SSTORE SWAP1 PUSH1 0x0 MSTORE PUSH1 0x20 PUSH1 0x0 KECCAK256 SWAP1 DUP2 ADD SWAP3 DUP3 ISZERO PUSH2 0xDA8 JUMPI SWAP2 PUSH1 0x20 MUL DUP3 ADD JUMPDEST DUP3 DUP2 GT ISZERO PUSH2 0xDA7 JUMPI DUP3 MLOAD DUP3 SSTORE SWAP2 PUSH1 0x20 ADD SWAP2 SWAP1 PUSH1 0x1 ADD SWAP1 PUSH2 0xD8C JUMP JUMPDEST JUMPDEST POP SWAP1 POP PUSH2 0xDB5 SWAP2 SWAP1 PUSH2 0xDB9 JUMP JUMPDEST POP SWAP1 JUMP JUMPDEST JUMPDEST DUP1 DUP3 GT ISZERO PUSH2 0xDD2 JUMPI PUSH1 0x0 DUP2 PUSH1 0x0 SWAP1 SSTORE POP PUSH1 0x1 ADD PUSH2 0xDBA JUMP JUMPDEST POP SWAP1 JUMP JUMPDEST PUSH1 0x0 PUSH1 0x40 MLOAD SWAP1 POP SWAP1 JUMP JUMPDEST PUSH1 0x0 DUP1 REVERT JUMPDEST PUSH1 0x0 DUP1 REVERT JUMPDEST PUSH1 0x0 DUP2 SWAP1 POP SWAP2 SWAP1 POP JUMP JUMPDEST PUSH2 0xDFD DUP2 PUSH2 0xDEA JUMP JUMPDEST DUP2 EQ PUSH2 0xE08 JUMPI PUSH1 0x0 DUP1 REVERT JUMPDEST POP JUMP JUMPDEST PUSH1 0x0 DUP2 CALLDATALOAD SWAP1 POP PUSH2 0xE1A DUP2 PUSH2 0xDF4 JUMP JUMPDEST SWAP3 SWAP2 POP POP JUMP JUMPDEST PUSH1 0x0 DUP1 REVERT JUMPDEST PUSH1 0x0 DUP1 REVERT JUMPDEST PUSH1 0x0 PUSH1 0x1F NOT PUSH1 0x1F DUP4 ADD AND SWAP1 POP SWAP2 SWAP1 POP JUMP JUMPDEST PUSH32 0x4E487B7100000000000000000000000000000000000000000000000000000000 PUSH1 0x0 MSTORE PUSH1 0x41 PUSH1 0x4 MSTORE PUSH1 0x24 PUSH1 0x0 REVERT JUMPDEST PUSH2 0xE73 DUP3 PUSH2 0xE2A JUMP JUMPDEST DUP2 ADD DUP2 DUP2 LT PUSH8 0xFFFFFFFFFFFFFFFF DUP3 GT OR ISZERO PUSH2 0xE92 JUMPI PUSH2 0xE91 PUSH2 0xE3B JUMP JUMPDEST JUMPDEST DUP1 PUSH1 0x40 MSTORE POP POP POP JUMP JUMPDEST PUSH1 0x0 PUSH2 0xEA5 PUSH2 0xDD6 JUMP JUMPDEST SWAP1 POP PUSH2 0xEB1 DUP3 DUP3 PUSH2 0xE6A JUMP JUMPDEST SWAP2 SWAP1 POP JUMP JUMPDEST PUSH1 0x0 PUSH8 0xFFFFFFFFFFFFFFFF DUP3 GT ISZERO PUSH2 0xED1 JUMPI PUSH2 0xED0 PUSH2 0xE3B JUMP JUMPDEST JUMPDEST PUSH2 0xEDA DUP3 PUSH2 0xE2A JUMP JUMPDEST SWAP1 POP PUSH1 0x20 DUP2 ADD SWAP1 POP SWAP2 SWAP1 POP JUMP JUMPDEST DUP3 DUP2 DUP4 CALLDATACOPY PUSH1 0x0 DUP4 DUP4 ADD MSTORE POP POP POP JUMP JUMPDEST PUSH1 0x0 PUSH2 0xF09 PUSH2 0xF04 DUP5 PUSH2 0xEB6 JUMP JUMPDEST PUSH2 0xE9B JUMP JUMPDEST SWAP1 POP DUP3 DUP2 MSTORE PUSH1 0x20 DUP2 ADD DUP5 DUP5 DUP5 ADD GT ISZERO PUSH2 0xF25 JUMPI PUSH2 0xF24 PUSH2 0xE25 JUMP JUMPDEST JUMPDEST PUSH2 0xF30 DUP5 DUP3 DUP6 PUSH2 0xEE7 JUMP JUMPDEST POP SWAP4 SWAP3 POP POP POP JUMP JUMPDEST PUSH1 0x0 DUP3 PUSH1 0x1F DUP4 ADD SLT PUSH2 0xF4D JUMPI PUSH2 0xF4C PUSH2 0xE20 JUMP JUMPDEST JUMPDEST DUP2 CALLDATALOAD PUSH2 0xF5D DUP5 DUP3 PUSH1 0x20 DUP7 ADD PUSH2 0xEF6 JUMP JUMPDEST SWAP2 POP POP SWAP3 SWAP2 POP POP JUMP JUMPDEST PUSH1 0x0 DUP1 PUSH1 0x40 DUP4 DUP6 SUB SLT ISZERO PUSH2 0xF7D JUMPI PUSH2 0xF7C PUSH2 0xDE0 JUMP JUMPDEST JUMPDEST PUSH1 0x0 PUSH2 0xF8B DUP6 DUP3 DUP7 ADD PUSH2 0xE0B JUMP JUMPDEST SWAP3 POP POP PUSH1 0x20 DUP4 ADD CALLDATALOAD PUSH8 0xFFFFFFFFFFFFFFFF DUP2 GT ISZERO PUSH2 0xFAC JUMPI PUSH2 0xFAB PUSH2 0xDE5 JUMP JUMPDEST JUMPDEST PUSH2 0xFB8 DUP6 DUP3 DUP7 ADD PUSH2 0xF38 JUMP JUMPDEST SWAP2 POP POP SWAP3 POP SWAP3 SWAP1 POP JUMP JUMPDEST PUSH1 0x0 PUSH1 0x20 DUP3 DUP5 SUB SLT ISZERO PUSH2 0xFD8 JUMPI PUSH2 0xFD7 PUSH2 0xDE0 JUMP JUMPDEST JUMPDEST PUSH1 0x0 PUSH2 0xFE6 DUP5 DUP3 DUP6 ADD PUSH2 0xE0B JUMP JUMPDEST SWAP2 POP POP SWAP3 SWAP2 POP POP JUMP JUMPDEST PUSH1 0x0 DUP2 MLOAD SWAP1 POP SWAP2 SWAP1 POP JUMP JUMPDEST PUSH1 0x0 DUP3 DUP3 MSTORE PUSH1 0x20 DUP3 ADD SWAP1 POP SWAP3 SWAP2 POP POP JUMP JUMPDEST PUSH1 0x0 DUP2 SWAP1 POP PUSH1 0x20 DUP3 ADD SWAP1 POP SWAP2 SWAP1 POP JUMP JUMPDEST PUSH2 0x1024 DUP2 PUSH2 0xDEA JUMP JUMPDEST DUP3 MSTORE POP POP JUMP JUMPDEST PUSH1 0x0 PUSH2 0x1036 DUP4 DUP4 PUSH2 0x101B JUMP JUMPDEST PUSH1 0x20 DUP4 ADD SWAP1 POP SWAP3 SWAP2 POP POP JUMP JUMPDEST PUSH1 0x0 PUSH1 0x20 DUP3 ADD SWAP1 POP SWAP2 SWAP1 POP JUMP JUMPDEST PUSH1 0x0 PUSH2 0x105A DUP3 PUSH2 0xFEF JUMP JUMPDEST PUSH2 0x1064 DUP2 DUP6 PUSH2 0xFFA JUMP JUMPDEST SWAP4 POP PUSH2 0x106F DUP4 PUSH2 0x100B JUMP JUMPDEST DUP1 PUSH1 0x0 JUMPDEST DUP4 DUP2 LT ISZERO PUSH2 0x10A0 JUMPI DUP2 MLOAD PUSH2 0x1087 DUP9 DUP3 PUSH2 0x102A JUMP JUMPDEST SWAP8 POP PUSH2 0x1092 DUP4 PUSH2 0x1042 JUMP JUMPDEST SWAP3 POP POP PUSH1 0x1 DUP2 ADD SWAP1 POP PUSH2 0x1073 JUMP JUMPDEST POP DUP6 SWAP4 POP POP POP POP SWAP3 SWAP2 POP POP JUMP JUMPDEST PUSH1 0x0 PUSH1 0x20 DUP3 ADD SWAP1 POP DUP2 DUP2 SUB PUSH1 0x0 DUP4 ADD MSTORE PUSH2 0x10C7 DUP2 DUP5 PUSH2 0x104F JUMP JUMPDEST SWAP1 POP SWAP3 SWAP2 POP POP JUMP JUMPDEST PUSH1 0x0 DUP2 MLOAD SWAP1 POP SWAP2 SWAP1 POP JUMP JUMPDEST PUSH1 0x0 DUP3 DUP3 MSTORE PUSH1 0x20 DUP3 ADD SWAP1 POP SWAP3 SWAP2 POP POP JUMP JUMPDEST PUSH1 0x0 DUP2 SWAP1 POP PUSH1 0x20 DUP3 ADD SWAP1 POP SWAP2 SWAP1 POP JUMP JUMPDEST PUSH1 0x0 DUP2 MLOAD SWAP1 POP SWAP2 SWAP1 POP JUMP JUMPDEST PUSH1 0x0 DUP3 DUP3 MSTORE PUSH1 0x20 DUP3 ADD SWAP1 POP SWAP3 SWAP2 POP POP JUMP JUMPDEST PUSH1 0x0 JUMPDEST DUP4 DUP2 LT ISZERO PUSH2 0x1135 JUMPI DUP1 DUP3 ADD MLOAD DUP2 DUP5 ADD MSTORE PUSH1 0x20 DUP2 ADD SWAP1 POP PUSH2 0x111A JUMP JUMPDEST PUSH1 0x0 DUP5 DUP5 ADD MSTORE POP POP POP POP JUMP JUMPDEST PUSH1 0x0 PUSH2 0x114C DUP3 PUSH2 0x10FB JUMP JUMPDEST PUSH2 0x1156 DUP2 DUP6 PUSH2 0x1106 JUMP JUMPDEST SWAP4 POP PUSH2 0x1166 DUP2 DUP6 PUSH1 0x20 DUP7 ADD PUSH2 0x1117 JUMP JUMPDEST PUSH2 0x116F DUP2 PUSH2 0xE2A JUMP JUMPDEST DUP5 ADD SWAP2 POP POP SWAP3 SWAP2 POP POP JUMP JUMPDEST PUSH1 0x0 DUP3 DUP3 MSTORE PUSH1 0x20 DUP3 ADD SWAP1 POP SWAP3 SWAP2 POP POP JUMP JUMPDEST PUSH1 0x0 PUSH2 0x1196 DUP3 PUSH2 0xFEF JUMP JUMPDEST PUSH2 0x11A0 DUP2 DUP6 PUSH2 0x117A JUMP JUMPDEST SWAP4 POP PUSH2 0x11AB DUP4 PUSH2 0x100B JUMP JUMPDEST DUP1 PUSH1 0x0 JUMPDEST DUP4 DUP2 LT ISZERO PUSH2 0x11DC JUMPI DUP2 MLOAD PUSH2 0x11C3 DUP9 DUP3 PUSH2 0x102A JUMP JUMPDEST SWAP8 POP PUSH2 0x11CE DUP4 PUSH2 0x1042 JUMP JUMPDEST SWAP3 POP POP PUSH1 0x1 DUP2 ADD SWAP1 POP PUSH2 0x11AF JUMP JUMPDEST POP DUP6 SWAP4 POP POP POP POP SWAP3 SWAP2 POP POP JUMP JUMPDEST PUSH1 0x0 PUSH1 0xC0 DUP4 ADD PUSH1 0x0 DUP4 ADD MLOAD PUSH2 0x1201 PUSH1 0x0 DUP7 ADD DUP3 PUSH2 0x101B JUMP JUMPDEST POP PUSH1 0x20 DUP4 ADD MLOAD DUP5 DUP3 SUB PUSH1 0x20 DUP7 ADD MSTORE PUSH2 0x1219 DUP3 DUP3 PUSH2 0x1141 JUMP JUMPDEST SWAP2 POP POP PUSH1 0x40 DUP4 ADD MLOAD DUP5 DUP3 SUB PUSH1 0x40 DUP7 ADD MSTORE PUSH2 0x1233 DUP3 DUP3 PUSH2 0x1141 JUMP JUMPDEST SWAP2 POP POP PUSH1 0x60 DUP4 ADD MLOAD DUP5 DUP3 SUB PUSH1 0x60 DUP7 ADD MSTORE PUSH2 0x124D DUP3 DUP3 PUSH2 0x118B JUMP JUMPDEST SWAP2 POP POP PUSH1 0x80 DUP4 ADD MLOAD PUSH2 0x1262 PUSH1 0x80 DUP7 ADD DUP3 PUSH2 0x101B JUMP JUMPDEST POP PUSH1 0xA0 DUP4 ADD MLOAD DUP5 DUP3 SUB PUSH1 0xA0 DUP7 ADD MSTORE PUSH2 0x127A DUP3 DUP3 PUSH2 0x1141 JUMP JUMPDEST SWAP2 POP POP DUP1 SWAP2 POP POP SWAP3 SWAP2 POP POP JUMP JUMPDEST PUSH1 0x0 PUSH2 0x1293 DUP4 DUP4 PUSH2 0x11E9 JUMP JUMPDEST SWAP1 POP SWAP3 SWAP2 POP POP JUMP JUMPDEST PUSH1 0x0 PUSH1 0x20 DUP3 ADD SWAP1 POP SWAP2 SWAP1 POP JUMP JUMPDEST PUSH1 0x0 PUSH2 0x12B3 DUP3 PUSH2 0x10CF JUMP JUMPDEST PUSH2 0x12BD DUP2 DUP6 PUSH2 0x10DA JUMP JUMPDEST SWAP4 POP DUP4 PUSH1 0x20 DUP3 MUL DUP6 ADD PUSH2 0x12CF DUP6 PUSH2 0x10EB JUMP JUMPDEST DUP1 PUSH1 0x0 JUMPDEST DUP6 DUP2 LT ISZERO PUSH2 0x130B JUMPI DUP5 DUP5 SUB DUP10 MSTORE DUP2 MLOAD PUSH2 0x12EC DUP6 DUP3 PUSH2 0x1287 JUMP JUMPDEST SWAP5 POP PUSH2 0x12F7 DUP4 PUSH2 0x129B JUMP JUMPDEST SWAP3 POP PUSH1 0x20 DUP11 ADD SWAP10 POP POP PUSH1 0x1 DUP2 ADD SWAP1 POP PUSH2 0x12D3 JUMP JUMPDEST POP DUP3 SWAP8 POP DUP8 SWAP6 POP POP POP POP POP POP SWAP3 SWAP2 POP POP JUMP JUMPDEST PUSH1 0x0 PUSH1 0x20 DUP3 ADD SWAP1 POP DUP2 DUP2 SUB PUSH1 0x0 DUP4 ADD MSTORE PUSH2 0x1337 DUP2 DUP5 PUSH2 0x12A8 JUMP JUMPDEST SWAP1 POP SWAP3 SWAP2 POP POP JUMP JUMPDEST PUSH2 0x1348 DUP2 PUSH2 0xDEA JUMP JUMPDEST DUP3 MSTORE POP POP JUMP JUMPDEST PUSH1 0x0 DUP3 DUP3 MSTORE PUSH1 0x20 DUP3 ADD SWAP1 POP SWAP3 SWAP2 POP POP JUMP JUMPDEST PUSH1 0x0 PUSH2 0x136A DUP3 PUSH2 0x10FB JUMP JUMPDEST PUSH2 0x1374 DUP2 DUP6 PUSH2 0x134E JUMP JUMPDEST SWAP4 POP PUSH2 0x1384 DUP2 DUP6 PUSH1 0x20 DUP7 ADD PUSH2 0x1117 JUMP JUMPDEST PUSH2 0x138D DUP2 PUSH2 0xE2A JUMP JUMPDEST DUP5 ADD SWAP2 POP POP SWAP3 SWAP2 POP POP JUMP JUMPDEST PUSH1 0x0 PUSH1 0xA0 DUP3 ADD SWAP1 POP PUSH2 0x13AD PUSH1 0x0 DUP4 ADD DUP9 PUSH2 0x133F JUMP JUMPDEST DUP2 DUP2 SUB PUSH1 0x20 DUP4 ADD MSTORE PUSH2 0x13BF DUP2 DUP8 PUSH2 0x135F JUMP JUMPDEST SWAP1 POP DUP2 DUP2 SUB PUSH1 0x40 DUP4 ADD MSTORE PUSH2 0x13D3 DUP2 DUP7 PUSH2 0x135F JUMP JUMPDEST SWAP1 POP PUSH2 0x13E2 PUSH1 0x60 DUP4 ADD DUP6 PUSH2 0x133F JUMP JUMPDEST DUP2 DUP2 SUB PUSH1 0x80 DUP4 ADD MSTORE PUSH2 0x13F4 DUP2 DUP5 PUSH2 0x135F JUMP JUMPDEST SWAP1 POP SWAP7 SWAP6 POP POP POP POP POP POP JUMP JUMPDEST PUSH1 0x0 PUSH1 0x20 DUP3 ADD SWAP1 POP PUSH2 0x1415 PUSH1 0x0 DUP4 ADD DUP5 PUSH2 0x133F JUMP JUMPDEST SWAP3 SWAP2 POP POP JUMP JUMPDEST PUSH1 0x0 PUSH1 0xA0 DUP3 ADD SWAP1 POP PUSH2 0x1430 PUSH1 0x0 DUP4 ADD DUP9 PUSH2 0x133F JUMP JUMPDEST DUP2 DUP2 SUB PUSH1 0x20 DUP4 ADD MSTORE PUSH2 0x1442 DUP2 DUP8 PUSH2 0x135F JUMP JUMPDEST SWAP1 POP DUP2 DUP2 SUB PUSH1 0x40 DUP4 ADD MSTORE PUSH2 0x1456 DUP2 DUP7 PUSH2 0x135F JUMP JUMPDEST SWAP1 POP DUP2 DUP2 SUB PUSH1 0x60 DUP4 ADD MSTORE PUSH2 0x146A DUP2 DUP6 PUSH2 0x104F JUMP JUMPDEST SWAP1 POP PUSH2 0x1479 PUSH1 0x80 DUP4 ADD DUP5 PUSH2 0x133F JUMP JUMPDEST SWAP7 SWAP6 POP POP POP POP POP POP JUMP JUMPDEST PUSH1 0x0 DUP1 PUSH1 0x0 DUP1 PUSH1 0x80 DUP6 DUP8 SUB SLT ISZERO PUSH2 0x149D JUMPI PUSH2 0x149C PUSH2 0xDE0 JUMP JUMPDEST JUMPDEST PUSH1 0x0 DUP6 ADD CALLDATALOAD PUSH8 0xFFFFFFFFFFFFFFFF DUP2 GT ISZERO PUSH2 0x14BB JUMPI PUSH2 0x14BA PUSH2 0xDE5 JUMP JUMPDEST JUMPDEST PUSH2 0x14C7 DUP8 DUP3 DUP9 ADD PUSH2 0xF38 JUMP JUMPDEST SWAP5 POP POP PUSH1 0x20 DUP6 ADD CALLDATALOAD PUSH8 0xFFFFFFFFFFFFFFFF DUP2 GT ISZERO PUSH2 0x14E8 JUMPI PUSH2 0x14E7 PUSH2 0xDE5 JUMP JUMPDEST JUMPDEST PUSH2 0x14F4 DUP8 DUP3 DUP9 ADD PUSH2 0xF38 JUMP JUMPDEST SWAP4 POP POP PUSH1 0x40 PUSH2 0x1505 DUP8 DUP3 DUP9 ADD PUSH2 0xE0B JUMP JUMPDEST SWAP3 POP POP PUSH1 0x60 DUP6 ADD CALLDATALOAD PUSH8 0xFFFFFFFFFFFFFFFF DUP2 GT ISZERO PUSH2 0x1526 JUMPI PUSH2 0x1525 PUSH2 0xDE5 JUMP JUMPDEST JUMPDEST PUSH2 0x1532 DUP8 DUP3 DUP9 ADD PUSH2 0xF38 JUMP JUMPDEST SWAP2 POP POP SWAP3 SWAP6 SWAP2 SWAP5 POP SWAP3 POP JUMP JUMPDEST PUSH1 0x0 PUSH1 0x60 DUP3 ADD SWAP1 POP PUSH2 0x1553 PUSH1 0x0 DUP4 ADD DUP7 PUSH2 0x133F JUMP JUMPDEST PUSH2 0x1560 PUSH1 0x20 DUP4 ADD DUP6 PUSH2 0x133F JUMP JUMPDEST DUP2 DUP2 SUB PUSH1 0x40 DUP4 ADD MSTORE PUSH2 0x1572 DUP2 DUP5 PUSH2 0x135F JUMP JUMPDEST SWAP1 POP SWAP5 SWAP4 POP POP POP POP JUMP JUMPDEST PUSH32 0x496E76616C69642072657374617572616E742049440000000000000000000000 PUSH1 0x0 DUP3 ADD MSTORE POP JUMP JUMPDEST PUSH1 0x0 PUSH2 0x15B2 PUSH1 0x15 DUP4 PUSH2 0x134E JUMP JUMPDEST SWAP2 POP PUSH2 0x15BD DUP3 PUSH2 0x157C JUMP JUMPDEST PUSH1 0x20 DUP3 ADD SWAP1 POP SWAP2 SWAP1 POP JUMP JUMPDEST PUSH1 0x0 PUSH1 0x20 DUP3 ADD SWAP1 POP DUP2 DUP2 SUB PUSH1 0x0 DUP4 ADD MSTORE PUSH2 0x15E1 DUP2 PUSH2 0x15A5 JUMP JUMPDEST SWAP1 POP SWAP2 SWAP1 POP JUMP JUMPDEST PUSH32 0x4E487B7100000000000000000000000000000000000000000000000000000000 PUSH1 0x0 MSTORE PUSH1 0x11 PUSH1 0x4 MSTORE PUSH1 0x24 PUSH1 0x0 REVERT JUMPDEST PUSH1 0x0 PUSH2 0x1622 DUP3 PUSH2 0xDEA JUMP JUMPDEST SWAP2 POP PUSH32 0xFFFFFFFFFFFFFFFFFFFFFFFFFFFFFFFFFFFFFFFFFFFFFFFFFFFFFFFFFFFFFFFF DUP3 SUB PUSH2 0x1654 JUMPI PUSH2 0x1653 PUSH2 0x15E8 JUMP JUMPDEST JUMPDEST PUSH1 0x1 DUP3 ADD SWAP1 POP SWAP2 SWAP1 POP JUMP JUMPDEST PUSH32 0x4E487B7100000000000000000000000000000000000000000000000000000000 PUSH1 0x0 MSTORE PUSH1 0x22 PUSH1 0x4 MSTORE PUSH1 0x24 PUSH1 0x0 REVERT JUMPDEST PUSH1 0x0 PUSH1 0x2 DUP3 DIV SWAP1 POP PUSH1 0x1 DUP3 AND DUP1 PUSH2 0x16A6 JUMPI PUSH1 0x7F DUP3 AND SWAP2 POP JUMPDEST PUSH1 0x20 DUP3 LT DUP2 SUB PUSH2 0x16B9 JUMPI PUSH2 0x16B8 PUSH2 0x165F JUMP JUMPDEST JUMPDEST POP SWAP2 SWAP1 POP JUMP JUMPDEST PUSH1 0x0 DUP2 SWAP1 POP DUP2 PUSH1 0x0 MSTORE PUSH1 0x20 PUSH1 0x0 KECCAK256 SWAP1 POP SWAP2 SWAP1 POP JUMP JUMPDEST PUSH1 0x0 PUSH1 0x20 PUSH1 0x1F DUP4 ADD DIV SWAP1 POP SWAP2 SWAP1 POP JUMP JUMPDEST PUSH1 0x0 DUP3 DUP3 SHL SWAP1 POP SWAP3 SWAP2 POP POP JUMP JUMPDEST PUSH1 0x0 PUSH1 0x8 DUP4 MUL PUSH2 0x1721 PUSH32 0xFFFFFFFFFFFFFFFFFFFFFFFFFFFFFFFFFFFFFFFFFFFFFFFFFFFFFFFFFFFFFFFF DUP3 PUSH2 0x16E4 JUMP JUMPDEST PUSH2 0x172B DUP7 DUP4 PUSH2 0x16E4 JUMP JUMPDEST SWAP6 POP DUP1 NOT DUP5 AND SWAP4 POP DUP1 DUP7 AND DUP5 OR SWAP3 POP POP POP SWAP4 SWAP3 POP POP POP JUMP JUMPDEST PUSH1 0x0 DUP2 SWAP1 POP SWAP2 SWAP1 POP JUMP JUMPDEST PUSH1 0x0 PUSH2 0x1768 PUSH2 0x1763 PUSH2 0x175E DUP5 PUSH2 0xDEA JUMP JUMPDEST PUSH2 0x1743 JUMP JUMPDEST PUSH2 0xDEA JUMP JUMPDEST SWAP1 POP SWAP2 SWAP1 POP JUMP JUMPDEST PUSH1 0x0 DUP2 SWAP1 POP SWAP2 SWAP1 POP JUMP JUMPDEST PUSH2 0x1782 DUP4 PUSH2 0x174D JUMP JUMPDEST PUSH2 0x1796 PUSH2 0x178E DUP3 PUSH2 0x176F JUMP JUMPDEST DUP5 DUP5 SLOAD PUSH2 0x16F1 JUMP JUMPDEST DUP3 SSTORE POP POP POP POP JUMP JUMPDEST PUSH1 0x0 SWAP1 JUMP JUMPDEST PUSH2 0x17AB PUSH2 0x179E JUMP JUMPDEST PUSH2 0x17B6 DUP2 DUP5 DUP5 PUSH2 0x1779 JUMP JUMPDEST POP POP POP JUMP JUMPDEST JUMPDEST DUP2 DUP2 LT ISZERO PUSH2 0x17DA JUMPI PUSH2 0x17CF PUSH1 0x0 DUP3 PUSH2 0x17A3 JUMP JUMPDEST PUSH1 0x1 DUP2 ADD SWAP1 POP PUSH2 0x17BC JUMP JUMPDEST POP POP JUMP JUMPDEST PUSH1 0x1F DUP3 GT ISZERO PUSH2 0x181F JUMPI PUSH2 0x17F0 DUP2 PUSH2 0x16BF JUMP JUMPDEST PUSH2 0x17F9 DUP5 PUSH2 0x16D4 JUMP JUMPDEST DUP2 ADD PUSH1 0x20 DUP6 LT ISZERO PUSH2 0x1808 JUMPI DUP2 SWAP1 POP JUMPDEST PUSH2 0x181C PUSH2 0x1814 DUP6 PUSH2 0x16D4 JUMP JUMPDEST DUP4 ADD DUP3 PUSH2 0x17BB JUMP JUMPDEST POP POP JUMPDEST POP POP POP JUMP JUMPDEST PUSH1 0x0 DUP3 DUP3 SHR SWAP1 POP SWAP3 SWAP2 POP POP JUMP JUMPDEST PUSH1 0x0 PUSH2 0x1842 PUSH1 0x0 NOT DUP5 PUSH1 0x8 MUL PUSH2 0x1824 JUMP JUMPDEST NOT DUP1 DUP4 AND SWAP2 POP POP SWAP3 SWAP2 POP POP JUMP JUMPDEST PUSH1 0x0 PUSH2 0x185B DUP4 DUP4 PUSH2 0x1831 JUMP JUMPDEST SWAP2 POP DUP3 PUSH1 0x2 MUL DUP3 OR SWAP1 POP SWAP3 SWAP2 POP POP JUMP JUMPDEST PUSH2 0x1874 DUP3 PUSH2 0x10FB JUMP JUMPDEST PUSH8 0xFFFFFFFFFFFFFFFF DUP2 GT ISZERO PUSH2 0x188D JUMPI PUSH2 0x188C PUSH2 0xE3B JUMP JUMPDEST JUMPDEST PUSH2 0x1897 DUP3 SLOAD PUSH2 0x168E JUMP JUMPDEST PUSH2 0x18A2 DUP3 DUP3 DUP6 PUSH2 0x17DE JUMP JUMPDEST PUSH1 0x0 PUSH1 0x20 SWAP1 POP PUSH1 0x1F DUP4 GT PUSH1 0x1 DUP2 EQ PUSH2 0x18D5 JUMPI PUSH1 0x0 DUP5 ISZERO PUSH2 0x18C3 JUMPI DUP3 DUP8 ADD MLOAD SWAP1 POP JUMPDEST PUSH2 0x18CD DUP6 DUP3 PUSH2 0x184F JUMP JUMPDEST DUP7 SSTORE POP PUSH2 0x1935 JUMP JUMPDEST PUSH1 0x1F NOT DUP5 AND PUSH2 0x18E3 DUP7 PUSH2 0x16BF JUMP JUMPDEST PUSH1 0x0 JUMPDEST DUP3 DUP2 LT ISZERO PUSH2 0x190B JUMPI DUP5 DUP10 ADD MLOAD DUP3 SSTORE PUSH1 0x1 DUP3 ADD SWAP2 POP PUSH1 0x20 DUP6 ADD SWAP5 POP PUSH1 0x20 DUP2 ADD SWAP1 POP PUSH2 0x18E6 JUMP JUMPDEST DUP7 DUP4 LT ISZERO PUSH2 0x1928 JUMPI DUP5 DUP10 ADD MLOAD PUSH2 0x1924 PUSH1 0x1F DUP10 AND DUP3 PUSH2 0x1831 JUMP JUMPDEST DUP4 SSTORE POP JUMPDEST PUSH1 0x1 PUSH1 0x2 DUP9 MUL ADD DUP9 SSTORE POP POP POP JUMPDEST POP POP POP POP POP POP JUMP JUMPDEST PUSH32 0x4E487B7100000000000000000000000000000000000000000000000000000000 PUSH1 0x0 MSTORE PUSH1 0x32 PUSH1 0x4 MSTORE PUSH1 0x24 PUSH1 0x0 REVERT INVALID LOG2 PUSH5 0x6970667358 0x22 SLT KECCAK256 MLOAD 0xD1 0xE9 PUSH1 0x2E 0xE5 0xC4 PUSH31 0xB84CCC031558591821706D20ECA91E14CB4DEF42CB8785B664736F6C634300 ADDMOD GT STOP CALLER "},"gasEstimates":{"creation":{"codeDepositCost":"1312400","executionCost":"1369","totalCost":"1313769"},"external":{"addRestaurant(string,string,uint256,string)":"infinite","addReview(uint256,string)":"infinite","getAllRestaurants()":"infinite","getRestaurant(uint256)":"infinite","getReviewsByRestaurant(uint256)":"infinite","restaurantCount()":"2429","restaurants(uint256)":"infinite","reviewCount()":"2517","reviews(uint256)":"infinite"}},"methodIdentifiers":{"addRestaurant(string,string,uint256,string)":"e81935f2","addReview(uint256,string)":"5bb0c5d6","getAllRestaurants()":"87734400","getRestaurant(uint256)":"c298f1e7","getReviewsByRestaurant(uint256)":"63661d37","restaurantCount()":"b11b91e6","restaurants(uint256)":"ad5461d8","reviewCount()":"eff5924f","reviews(uint256)":"e83ddcea"}},"storageLayout":{"storage":[{"astId":29,"contract":"contracts/RestaurantReviews.sol:RestaurantReviews","label":"restaurants","offset":0,"slot":"0","type":"t_mapping(t_uint256,t_struct(Restaurant)17_storage)"},{"astId":34,"contract":"contracts/RestaurantReviews.sol:RestaurantReviews","label":"reviews","offset":0,"slot":"1","type":"t_mapping(t_uint256,t_struct(Review)24_storage)"},{"astId":36,"contract":"contracts/RestaurantReviews.sol:RestaurantReviews","label":"restaurantCount","offset":0,"slot":"2","type":"t_uint256"},{"astId":38,"contract":"contracts/RestaurantReviews.sol:RestaurantReviews","label":"reviewCount","offset":0,"slot":"3","type":"t_uint256"}],"types":{"t_array(t_uint256)dyn_storage":{"base":"t_uint256","encoding":"dynamic_array","label":"uint256[]","numberOfBytes":"32"},"t_mapping(t_uint256,t_struct(Restaurant)17_storage)":{"encoding":"mapping","key":"t_uint256","label":"mapping(uint256 => struct RestaurantReviews.Restaurant)","numberOfBytes":"32","value":"t_struct(Restaurant)17_storage"},"t_mapping(t_uint256,t_struct(Review)24_storage)":{"encoding":"mapping","key":"t_uint256","label":"mapping(uint256 => struct RestaurantReviews.Review)","numberOfBytes":"32","value":"t_struct(Review)24_storage"},"t_string_storage":{"encoding":"bytes","label":"string","numberOfBytes":"32"},"t_struct(Restaurant)17_storage":{"encoding":"inplace","label":"struct RestaurantReviews.Restaurant","members":[{"astId":5,"contract":"contracts/RestaurantReviews.sol:RestaurantReviews","label":"id","offset":0,"slot":"0","type":"t_uint256"},{"astId":7,"contract":"contracts/RestaurantReviews.sol:RestaurantReviews","label":"name","offset":0,"slot":"1","type":"t_string_storage"},{"astId":9,"contract":"contracts/RestaurantReviews.sol:RestaurantReviews","label":"url_ipfs","offset":0,"slot":"2","type":"t_string_storage"},{"astId":12,"contract":"contracts/RestaurantReviews.sol:RestaurantReviews","label":"reviewIds","offset":0,"slot":"3","type":"t_array(t_uint256)dyn_storage"},{"astId":14,"contract":"contracts/RestaurantReviews.sol:RestaurantReviews","label":"rating","offset":0,"slot":"4","type":"t_uint256"},{"astId":16,"contract":"contracts/RestaurantReviews.sol:RestaurantReviews","label":"tableLand","offset":0,"slot":"5","type":"t_string_storage"}],"numberOfBytes":"192"},"t_struct(Review)24_storage":{"encoding":"inplace","label":"struct RestaurantReviews.Review","members":[{"astId":19,"contract":"contracts/RestaurantReviews.sol:RestaurantReviews","label":"id","offset":0,"slot":"0","type":"t_uint256"},{"astId":21,"contract":"contracts/RestaurantReviews.sol:RestaurantReviews","label":"restaurantId","offset":0,"slot":"1","type":"t_uint256"},{"astId":23,"contract":"contracts/RestaurantReviews.sol:RestaurantReviews","label":"url_ipfs","offset":0,"slot":"2","type":"t_string_storage"}],"numberOfBytes":"96"},"t_uint256":{"encoding":"inplace","label":"uint256","numberOfBytes":"32"}}},"userdoc":{"kind":"user","methods":{},"notice":"A smart contract that allows changing a state variable of the contract and tracking the changes It also allows the owner to withdraw the Ether in the contract","version":1}}}}