{
  "_format": "hh-sol-artifact-1",
  "contractName": "YourContract",
  "sourceName": "contracts/YourContract.sol",
  "abi": [
    {
      "inputs": [
        {
          "internalType": "address",
          "name": "_owner",
          "type": "address"
        }
      ],
      "stateMutability": "nonpayable",
      "type": "constructor"
    },
    {
      "anonymous": false,
      "inputs": [
        {
          "indexed": true,
          "internalType": "address",
          "name": "greetingSetter",
          "type": "address"
        },
        {
          "indexed": false,
          "internalType": "string",
          "name": "newGreeting",
          "type": "string"
        },
        {
          "indexed": false,
          "internalType": "bool",
          "name": "premium",
          "type": "bool"
        },
        {
          "indexed": false,
          "internalType": "uint256",
          "name": "value",
          "type": "uint256"
        }
      ],
      "name": "GreetingChange",
      "type": "event"
    },
    {
      "inputs": [],
      "name": "greeting",
      "outputs": [
        {
          "internalType": "string",
          "name": "",
          "type": "string"
        }
      ],
      "stateMutability": "view",
      "type": "function"
    },
    {
      "inputs": [],
      "name": "owner",
      "outputs": [
        {
          "internalType": "address",
          "name": "",
          "type": "address"
        }
      ],
      "stateMutability": "view",
      "type": "function"
    },
    {
      "inputs": [],
      "name": "premium",
      "outputs": [
        {
          "internalType": "bool",
          "name": "",
          "type": "bool"
        }
      ],
      "stateMutability": "view",
      "type": "function"
    },
    {
      "inputs": [
        {
          "internalType": "string",
          "name": "_newGreeting",
          "type": "string"
        }
      ],
      "name": "setGreeting",
      "outputs": [],
      "stateMutability": "payable",
      "type": "function"
    },
    {
      "inputs": [],
      "name": "totalCounter",
      "outputs": [
        {
          "internalType": "uint256",
          "name": "",
          "type": "uint256"
        }
      ],
      "stateMutability": "view",
      "type": "function"
    },
    {
      "inputs": [
        {
          "internalType": "address",
          "name": "",
          "type": "address"
        }
      ],
      "name": "userGreetingCounter",
      "outputs": [
        {
          "internalType": "uint256",
          "name": "",
          "type": "uint256"
        }
      ],
      "stateMutability": "view",
      "type": "function"
    },
    {
      "inputs": [],
      "name": "withdraw",
      "outputs": [],
      "stateMutability": "nonpayable",
      "type": "function"
    },
    {
      "stateMutability": "payable",
      "type": "receive"
    }
  ],
  "bytecode": "0x60a06040526040518060400160405280601c81526020017f4275696c64696e6720556e73746f707061626c65204170707321212100000000815250600090816200004a919062000353565b506000600160006101000a81548160ff02191690831515021790555060006002553480156200007857600080fd5b50604051620013bc380380620013bc83398181016040528101906200009e9190620004a4565b8073ffffffffffffffffffffffffffffffffffffffff1660808173ffffffffffffffffffffffffffffffffffffffff168152505050620004d6565b600081519050919050565b7f4e487b7100000000000000000000000000000000000000000000000000000000600052604160045260246000fd5b7f4e487b7100000000000000000000000000000000000000000000000000000000600052602260045260246000fd5b600060028204905060018216806200015b57607f821691505b60208210810362000171576200017062000113565b5b50919050565b60008190508160005260206000209050919050565b60006020601f8301049050919050565b600082821b905092915050565b600060088302620001db7fffffffffffffffffffffffffffffffffffffffffffffffffffffffffffffffff826200019c565b620001e786836200019c565b95508019841693508086168417925050509392505050565b6000819050919050565b6000819050919050565b6000620002346200022e6200022884620001ff565b62000209565b620001ff565b9050919050565b6000819050919050565b620002508362000213565b620002686200025f826200023b565b848454620001a9565b825550505050565b600090565b6200027f62000270565b6200028c81848462000245565b505050565b5b81811015620002b457620002a860008262000275565b60018101905062000292565b5050565b601f8211156200030357620002cd8162000177565b620002d8846200018c565b81016020851015620002e8578190505b62000300620002f7856200018c565b83018262000291565b50505b505050565b600082821c905092915050565b6000620003286000198460080262000308565b1980831691505092915050565b600062000343838362000315565b9150826002028217905092915050565b6200035e82620000d9565b67ffffffffffffffff8111156200037a5762000379620000e4565b5b62000386825462000142565b62000393828285620002b8565b600060209050601f831160018114620003cb5760008415620003b6578287015190505b620003c2858262000335565b86555062000432565b601f198416620003db8662000177565b60005b828110156200040557848901518255600182019150602085019450602081019050620003de565b8683101562000425578489015162000421601f89168262000315565b8355505b6001600288020188555050505b505050505050565b600080fd5b600073ffffffffffffffffffffffffffffffffffffffff82169050919050565b60006200046c826200043f565b9050919050565b6200047e816200045f565b81146200048a57600080fd5b50565b6000815190506200049e8162000473565b92915050565b600060208284031215620004bd57620004bc6200043a565b5b6000620004cd848285016200048d565b91505092915050565b608051610ebc620005006000396000818161019e0152818161022e01526102fb0152610ebc6000f3fe6080604052600436106100745760003560e01c8063a41368621161004e578063a4136862146100ed578063cea49c3c14610109578063e0a73a9314610146578063ef690cc0146101715761007b565b80633ccfd60b146100805780638da5cb5b1461009757806397feba9d146100c25761007b565b3661007b57005b600080fd5b34801561008c57600080fd5b5061009561019c565b005b3480156100a357600080fd5b506100ac6102f9565b6040516100b99190610626565b60405180910390f35b3480156100ce57600080fd5b506100d761031d565b6040516100e4919061065a565b60405180910390f35b610107600480360381019061010291906107cf565b610323565b005b34801561011557600080fd5b50610130600480360381019061012b9190610844565b610464565b60405161013d919061065a565b60405180910390f35b34801561015257600080fd5b5061015b61047c565b604051610168919061088c565b60405180910390f35b34801561017d57600080fd5b5061018661048f565b6040516101939190610926565b60405180910390f35b7f000000000000000000000000000000000000000000000000000000000000000073ffffffffffffffffffffffffffffffffffffffff163373ffffffffffffffffffffffffffffffffffffffff161461022a576040517f08c379a000000000000000000000000000000000000000000000000000000000815260040161022190610994565b60405180910390fd5b60007f000000000000000000000000000000000000000000000000000000000000000073ffffffffffffffffffffffffffffffffffffffff1647604051610270906109e5565b60006040518083038185875af1925050503d80600081146102ad576040519150601f19603f3d011682016040523d82523d6000602084013e6102b2565b606091505b50509050806102f6576040517f08c379a00000000000000000000000000000000000000000000000000000000081526004016102ed90610a46565b60405180910390fd5b50565b7f000000000000000000000000000000000000000000000000000000000000000081565b60025481565b610346604051806060016040528060218152602001610e6660219139823361051d565b80600090816103559190610c72565b506001600260008282546103699190610d73565b925050819055506001600360003373ffffffffffffffffffffffffffffffffffffffff1673ffffffffffffffffffffffffffffffffffffffff16815260200190815260200160002060008282546103c09190610d73565b9250508190555060003411156103ef5760018060006101000a81548160ff02191690831515021790555061040b565b6000600160006101000a81548160ff0219169083151502179055505b3373ffffffffffffffffffffffffffffffffffffffff167f94cbd7e04dca26a7667654f6448b2ca0a40fec602118dc5fd8c82b9cf3c645ad8260003411600060405161045993929190610de2565b60405180910390a250565b60036020528060005260406000206000915090505481565b600160009054906101000a900460ff1681565b6000805461049c90610a95565b80601f01602080910402602001604051908101604052809291908181526020018280546104c890610a95565b80156105155780601f106104ea57610100808354040283529160200191610515565b820191906000526020600020905b8154815290600101906020018083116104f857829003601f168201915b505050505081565b6105b783838360405160240161053593929190610e20565b6040516020818303038152906040527f95ed0195000000000000000000000000000000000000000000000000000000007bffffffffffffffffffffffffffffffffffffffffffffffffffffffff19166020820180517bffffffffffffffffffffffffffffffffffffffffffffffffffffffff83818316178352505050506105bc565b505050565b60008151905060006a636f6e736f6c652e6c6f679050602083016000808483855afa5050505050565b600073ffffffffffffffffffffffffffffffffffffffff82169050919050565b6000610610826105e5565b9050919050565b61062081610605565b82525050565b600060208201905061063b6000830184610617565b92915050565b6000819050919050565b61065481610641565b82525050565b600060208201905061066f600083018461064b565b92915050565b6000604051905090565b600080fd5b600080fd5b600080fd5b600080fd5b6000601f19601f8301169050919050565b7f4e487b7100000000000000000000000000000000000000000000000000000000600052604160045260246000fd5b6106dc82610693565b810181811067ffffffffffffffff821117156106fb576106fa6106a4565b5b80604052505050565b600061070e610675565b905061071a82826106d3565b919050565b600067ffffffffffffffff82111561073a576107396106a4565b5b61074382610693565b9050602081019050919050565b82818337600083830152505050565b600061077261076d8461071f565b610704565b90508281526020810184848401111561078e5761078d61068e565b5b610799848285610750565b509392505050565b600082601f8301126107b6576107b5610689565b5b81356107c684826020860161075f565b91505092915050565b6000602082840312156107e5576107e461067f565b5b600082013567ffffffffffffffff81111561080357610802610684565b5b61080f848285016107a1565b91505092915050565b61082181610605565b811461082c57600080fd5b50565b60008135905061083e81610818565b92915050565b60006020828403121561085a5761085961067f565b5b60006108688482850161082f565b91505092915050565b60008115159050919050565b61088681610871565b82525050565b60006020820190506108a1600083018461087d565b92915050565b600081519050919050565b600082825260208201905092915050565b60005b838110156108e15780820151818401526020810190506108c6565b60008484015250505050565b60006108f8826108a7565b61090281856108b2565b93506109128185602086016108c3565b61091b81610693565b840191505092915050565b6000602082019050818103600083015261094081846108ed565b905092915050565b7f4e6f7420746865204f776e657200000000000000000000000000000000000000600082015250565b600061097e600d836108b2565b915061098982610948565b602082019050919050565b600060208201905081810360008301526109ad81610971565b9050919050565b600081905092915050565b50565b60006109cf6000836109b4565b91506109da826109bf565b600082019050919050565b60006109f0826109c2565b9150819050919050565b7f4661696c656420746f2073656e64204574686572000000000000000000000000600082015250565b6000610a306014836108b2565b9150610a3b826109fa565b602082019050919050565b60006020820190508181036000830152610a5f81610a23565b9050919050565b7f4e487b7100000000000000000000000000000000000000000000000000000000600052602260045260246000fd5b60006002820490506001821680610aad57607f821691505b602082108103610ac057610abf610a66565b5b50919050565b60008190508160005260206000209050919050565b60006020601f8301049050919050565b600082821b905092915050565b600060088302610b287fffffffffffffffffffffffffffffffffffffffffffffffffffffffffffffffff82610aeb565b610b328683610aeb565b95508019841693508086168417925050509392505050565b6000819050919050565b6000610b6f610b6a610b6584610641565b610b4a565b610641565b9050919050565b6000819050919050565b610b8983610b54565b610b9d610b9582610b76565b848454610af8565b825550505050565b600090565b610bb2610ba5565b610bbd818484610b80565b505050565b5b81811015610be157610bd6600082610baa565b600181019050610bc3565b5050565b601f821115610c2657610bf781610ac6565b610c0084610adb565b81016020851015610c0f578190505b610c23610c1b85610adb565b830182610bc2565b50505b505050565b600082821c905092915050565b6000610c4960001984600802610c2b565b1980831691505092915050565b6000610c628383610c38565b9150826002028217905092915050565b610c7b826108a7565b67ffffffffffffffff811115610c9457610c936106a4565b5b610c9e8254610a95565b610ca9828285610be5565b600060209050601f831160018114610cdc5760008415610cca578287015190505b610cd48582610c56565b865550610d3c565b601f198416610cea86610ac6565b60005b82811015610d1257848901518255600182019150602085019450602081019050610ced565b86831015610d2f5784890151610d2b601f891682610c38565b8355505b6001600288020188555050505b505050505050565b7f4e487b7100000000000000000000000000000000000000000000000000000000600052601160045260246000fd5b6000610d7e82610641565b9150610d8983610641565b9250828201905080821115610da157610da0610d44565b5b92915050565b6000819050919050565b6000610dcc610dc7610dc284610da7565b610b4a565b610641565b9050919050565b610ddc81610db1565b82525050565b60006060820190508181036000830152610dfc81866108ed565b9050610e0b602083018561087d565b610e186040830184610dd3565b949350505050565b60006060820190508181036000830152610e3a81866108ed565b90508181036020830152610e4e81856108ed565b9050610e5d6040830184610617565b94935050505056fe53657474696e67206e6577206772656574696e6720272573272066726f6d202573a264697066735822122027b6a64c48de2ce751cc3b86a9c2506af307e1952f3203b6c909dbdedeaa820e64736f6c63430008110033",
  "linkReferences": {},
  "deployedLinkReferences": {}
}